:020000040000FA
:1000000020060020F5000000FD000000FF000000B9
:1000100001010000030100000501000000000000D4
:1000200000000000000000000000000007010000C8
:1000300009010000000000000B010000E1070000C2
:10004000390900000F010000C10500000F01000088
:100050000F0100000F0100000F0100000F01000060
:100060000F0100000F010000000000000F01000060
:100070000F010000590500008D0500000F01000070
:100080000F0100003D080000F90600000F0100000C
:100090000F0100000F0100000F0100000F01000020
:1000A0000F0100000F0100000F0100000F01000010
:1000B0000F0100000F0100000F0100000F01000000
:1000C0000F0100000F0100000F0100000F010000F0
:1000D0000F0100000F0100000F01000000000000F0
:1000E000DFF80CD000F0A4F900480047CD1600005E
:1000F000200600200648804706480047FEE7FEE746
:10010000FEE7FEE7FEE7FEE7FEE7FEE7FEE7FEE7C7
:1001100011080000E10000002DE9F0410024061B59
:10012000254671F1000605DA01240027D0EB07000F
:1001300067EB0101161E73F1000605DA0027D2EB0A
:100140000702012567EB030300F0BDF886460E4663
:1001500017469C46AC4204D00025D0EB050E65EB5B
:10016000010624B10020D2EB000760EB030C7046BF
:1001700031463A466346BDE8F081000038B5D0E923
:100180000221491E01EB410102EBC1014268C1EBB2
:10019000011102EB81010268C1EB011102EB810246
:1001A000D0E9043101EB410103EB81013023A1F5DA
:1001B000527191FBF3F4174D6C4302EBC41291FBA7
:1001C000F3F403FB141100921A2902DB124B1A44B8
:1001D00000920C2291FBF2F3104C6343009C04EB61
:1001E000C313009391FBF2F302FB13110C4A08E0D6
:1001F000491E40F2A324535C6343009C04EBC313E9
:1002000000930029F4DC0146684600F093F800985A
:1002100038BD00003F0C0F008051010067C2030091
:10022000FC20000040EA01039B0703D009E008C955
:10023000121F08C0042AFAD203E011F8013B00F8AB
:10024000013B521EF9D2704730B505462A460B468F
:1002500012F8010B13F8014B08B1A042F8D01CB101
:10026000002802D06D1CF1E7284630BDCAB2401EFE
:1002700010F8011F8A4202D00029F9D100207047EE
:1002800070B5064600F096FB046805460A22002178
:10029000304600F095F82C6070BD30B50B46014635
:1002A00000202022012409E021FA02F59D4205D315
:1002B00003FA02F5491B04FA02F52844151EA2F1BF
:1002C0000102F1DC30BD2DE9F05F054600209246C9
:1002D0009B4688460646814640241BE02846414608
:1002E0004746224600F0C5F853465A46C01A914187
:1002F00010D311461846224600F0ACF82D1A67EBD1
:1003000001084F4622460120002100F0A3F817EB18
:1003100000094E41201EA4F10104DFDC48463146AD
:100320002A464346BDE8F09F014900F003B80000AB
:10033000F401002010B500683C22B0FBF2F302FB90
:100340001303B0FBF2F00B60B0FBF2F302FB1303FC
:10035000B0FBF2F018224B60B0FBF2F302FB130388
:10036000B0FBF2F0021D8B600723B2FBF3F403FB3A
:100370001422800040F2B55300F66C308A61B0FB65
:10038000F3F2B0FBF3F403FB1400443280084A613B
:10039000C8613B2802D3920700D0401C0022074CC2
:1003A00013460A61E25C824203D8801A5B1C0B612F
:1003B000F8E7401CC860084610BD00000821000096
:1003C0002DE9F04791460F4680460446002614F872
:1003D000015B2DB100F05EF80068405DC007F6D10A
:1003E0002B2D02D02D2D18D0641E4A4639462046AA
:1003F00000F054F827B13968A14201D1C7F8008054
:1004000071054FF002040BD54042002803DD00F0D7
:10041000D1FA0460A007BDE8F08746F48066E4E7FF
:100420000028F8DA00F0C6FA04606FF00040F2E746
:10043000064C074D06E0E06840F0010394E8070031
:1004400098471034AC42F6D3FFF74EFE002200006E
:1004500010220000202A04DB203A00FA02F10020DA
:1004600070479140C2F1200320FA03F319439040F2
:100470007047202A04DB203A21FA02F0002170475D
:1004800021FA02F3D040C2F12002914008431946FC
:100490007047000000487047982100002DE9F05F88
:1004A00082460078002715468B460AF10104B946BA
:1004B000302801D09DB113E014F8010B01277828F2
:1004C00003D0582801D045B10AE00DB1102D07D155
:1004D0000027102514F8010B02E0082500E00A258A
:1004E0000026B0460EE005FB080005FB06F10127DB
:1004F00001EB10461FFA80F8B6F5803F00D3B946ED
:1005000014F8010B294600F018F80028EBDABBF1CB
:10051000000F05D00FB1641E00E05446CBF8004038
:10052000B9F1000F06D000F045FA02210160C81EA3
:10053000BDE8F09F48EA0640FAE73A2800D2303892
:1005400020F02002412A01D3A2F13700884201D3D2
:100550004FF0FF307047000008B5002000900848B9
:10056000007800900648806C0649086006480088BC
:1005700020F4807000F580700349088008BD0000F9
:1005800000000340580000203400002008B500207F
:1005900000900848007800900648483000680649F6
:1005A00008600648008820F4007000F500700349D8
:1005B000088008BD800003405C000020340000205B
:1005C00010B502200949088001F048FD0849098852
:1005D00060F382010648018000BF00BF00BFBFF387
:1005E0004F8F00BF00BF00BF10BD0000302400408F
:1005F0003400002080200E4908700D484C3890F8D7
:100600003C0040F080000A494C3981F83C00084623
:1006100090F8340040F0800081F83400084690F8EB
:10062000380040F08000024914390870704700001B
:100630004C60004000B5FFF7DDFF0348008E20F45A
:1006400000400149088600BD00600040094800786C
:1006500040F010000749343981F83400102081F847
:100660005000084690F8380020F010000149091D9C
:10067000087070473460004000B5FFF7E7FF03489B
:10068000008E20F400700149088600BD0060004023
:1006900060200E4908700D48503890F83C0040F03A
:1006A00060000A49503981F83C00084690F834004F
:1006B00040F0600081F83400084690F8380020F0DF
:1006C000600002491839087070470000506000400F
:1006D00000B5FFF7DDFF0348008E20F420500149EC
:1006E000088600BD0060004000B5FFF7C5FFFFF7BA
:1006F000EFFFFFF79FFF00BD08B54FF040200088D7
:1007000000903148007850B301285AD12F48008812
:10071000401E2E4908800846008858B12C480068C1
:1007200000784FF04021087229480068401C284991
:10073000086013E02748008850B1AA204FF04021FC
:10074000087200202049087023482149086005E00C
:100750002248008820F080002049088031E01D48B0
:10076000008838B3AA204FF0402108720846008A5A
:1007700000F4805028B10846008A20F48050088296
:100780001EE00FE04FF04020007911490968087021
:100790000F480068401C0E4908600E480088401E43
:1007A0000C4908804FF04020008800F4E0600028E9
:1007B000E8D105E00948008820F08000074908805A
:1007C00000BF00BF08BD000048000020440000201A
:1007D0004000002046000020E401002034000020FA
:1007E0000748084908600848084908604FF0E020B9
:1007F000006920F003004FF0E0210861704700001D
:100800008400002038000020C40000203C000020AC
:100810000020074908800120064908800220064977
:10082000088047F2F810888040F2FF3088857047D2
:100830008825004044240040002000400CB5394881
:10084000007A01903748007D00909DF8040002284E
:1008500002D0042858D123E0334800680078314999
:1008600008703148006800780A2813D12F480088A2
:1008700020F0100010302D4908802A48007920F01F
:100880000200284908712948008820F020002749E3
:10089000088004E024480068401C234908603FE0C9
:1008A0004FF0E020006920F003004FF0E0210861E4
:1008B0001C4800781E49096808701D4800680078C7
:1008C0000A280AD11948008820F008000830174982
:1008D000088018481649086015E015480068401C53
:1008E000134908600846016812482030814202D945
:1008F00020380F4908604FF0E020006940F0030005
:100900004FF0E02108610BE00648007808490968CB
:10091000087008480649086005200249087100BFB0
:1009200000BF0CBD00500040380000203400002003
:100930003C000020C4000020082009490880094824
:10094000008820F4805000F580500649088000BFE0
:1009500000BF00BFBFF34F8F00BF00BF00BF704795
:1009600030250040340000200FB4084B10B504A916
:1009700002AA039800F032F8044602A9002000F011
:10098000CEF9204610BC5DF814FB00001F0D0000DE
:1009900000280DDB00BF00BF00F01F0201219140C5
:1009A0004209920002F1E022C2F8001100BF00BF2C
:1009B00070470000004870478000002002E008C82F
:1009C000121F08C1002AFAD170477047002001E0C9
:1009D00001C1121F002AFBD1704700002DE9FF4F13
:1009E0008BB088460546002606E025280BD0DDE9B9
:1009F0000D1290476D1C761C28780028F5D10FB099
:100A00003046BDE8F08F0024A146A2460122AE493F
:100A100000E0044315F8013F203B02FA03F00842CE
:100A2000F7D128782A2810D06FF02F022878A0F16B
:100A30003001092915D809EB890102EB410144F085
:100A4000020400EB01096D1CF0E758F8041B5FEA93
:100A5000010903D544F40054C9F1000944F002042B
:100A60006D1C28782E2817D115F8010F44F00404C6
:100A70002A280ED06FF02F022878A0F13001092922
:100A80000AD80AEB8A0102EB410100EB010A6D1C56
:100A9000F2E758F804AB6D1C28786C280FD006DC00
:100AA0004C2817D068280DD06A2814D104E0742887
:100AB00010D07A280FD10DE044F400140AE044F479
:100AC000801401E044F440146978814202D104F5B5
:100AD00080146D1C6D1C2878692865D006DC002800
:100AE0008DD0632827D0642806D15DE06E2808D019
:100AF00073282AD0752877D0DDE90D129047761C2F
:100B0000E0E0C4F30250022809D003280DD0D8F841
:100B1000001004280DD00E6008F10408D2E0D8F8C7
:100B20000010F217C1E90062F6E7D8F800100E8055
:100B3000F2E70E70F0E718F8041B8DF800100020A3
:100B40008DF80100EB46012003E058F804BB4FF09C
:100B5000FF3061074FF0000701D40AE07F1C5745C2
:100B60000DDA8742FADB1BF807100029F6D106E000
:100B70007F1C8742FCDB1BF807100029F8D1DDE958
:100B80000D23A9EB07008146214600F0B1F830445F
:100B9000C61904E0DDE90D121BF8010B90477F1E1A
:100BA000F8D22146484688E058F8040BC4F30251B5
:100BB0004FF00A0B032900D100B2042900D140B242
:100BC000002802DA40422D2102E0210505D52B2123
:100BD0008DF82410012104E006E0E10710D0202167
:100BE000F6E708AF089113E058F8040BC4F302517C
:100BF0004FF00A0B032900D180B2042900D1C0B202
:100C00000021EEE75946FFF748FB303107F8011D98
:100C10000028F7D1ADEB070000F1200B600702D5EB
:100C200024F4803401E04FF0010ADA4502DDAAEB3A
:100C30000B0000E00020824600EB0B010898014405
:100C4000A9EB01000A90E00306D4DDE90D2321465B
:100C50000A9800F04DF806444FF0000908E009A991
:100C600011F80900DDE90D12904709F10109761C20
:100C700008998945F3DBE0030CD5DDE90D23214616
:100C80000A9800F035F8064404E0DDE90D12302042
:100C90009047761CBAF10001AAF1010AF5DC05E0E3
:100CA000DDE90D1217F8010B9047761CBBF100012E
:100CB000ABF1010BF4DC0A982146DDE90D2300F0CD
:100CC00005F806446D1C97E6092801002DE9F0415E
:100CD000044600251E461746880404D405E039461C
:100CE0002020B0476D1C641EF9D52846BDE8F08170
:100CF0002DE9F041044600251E469046C80301D563
:100D0000302700E02027880404D505E04146384616
:100D1000B0476D1C641EF9D52846BDE8F0810A680D
:100D2000531C0B601070704703480449086005208D
:100D30000349087100207047C40000203C000020D7
:100D40000050004010B500F070FAC72001F0A8F97B
:100D500000F05EFA00200549088005490860054852
:100D6000006800F0C9FD002010BD000068000020F0
:100D70006C00002000000020012070472DE9F041A8
:100D800090B000BF5E480088C0F3C0100028F9D1C1
:100D90005C480068C0EBC00000EB40055A480068A2
:100DA00085424DD9584800681521B0FBF1F6300254
:100DB000C6EBC60101EB4101534A1268511A01EB1F
:100DC000410100EB81070C2004233A4603210090E7
:100DD0004E4800F0CBFF00BF49480088C0F3C01068
:100DE0000028F9D1494C2046FFF79EFA80462C2274
:100DF000414605A8FFF716FA05A80BC8089ACDE9E1
:100E00000023CDE902100998431C0A9800F26C7285
:100E10003FA14748FFF7A8FD454814304549086001
:100E2000B4F90A00B4F90810CDE90010B4F906309D
:100E3000B4F9042040A13F480068FFF795FD4DE05C
:100E400031480068401B84B23F480088844244DA3D
:100E500004EB44023D4901EB8200FFF765FA0646C8
:100E60002C22314605A8FFF7DDF9DDE90731DDE980
:100E70000520CDE90013CDE902020998431C0A9828
:100E800000F26C7222A12A48FFF76EFD2848143048
:100E90002849086004EB44012C4800EB8100B0F9BC
:100EA0000A0004EB4402294901EB8201B1F9081060
:100EB000CDE9001004EB4401244800EB8100B0F9B7
:100EC000063004EB4401214800EB8100B0F9042016
:100ED00019A118480068FFF747FD00BF0A480068DD
:100EE000401C09490860184800882844096888425D
:100EF00003D9012010B0BDE8F0810020FAE700001E
:100F0000340000206C00002070000020E40100206C
:100F10002534642F252E32642F252E32643B252E56
:100F200032643A252E32643A252E32643B000000AA
:100F3000840000203800002025693B25693B256995
:100F40003B25690D0A00000068000020E800002031
:100F50001348806820F400201149886010488830C8
:100F6000006820F40020C1F888000E48808D40F40D
:100F700000700C4988850C48007B40F009000A4944
:100F8000087309200877012081F87C00084690F852
:100F90006C0040F0010004496C310870704700009B
:100FA00000000340002000400060004010B54FF0FA
:100FB0004020008A20F001004FF0402108820748BD
:100FC000808840F00700054988800846808D40F001
:100FD00001008885FFF788FB10BD0000002000405D
:100FE00001200A4908700A48808840F46060084976
:100FF00088800846808D40F0080088850548008874
:1010000020F03C0003490880704700003050004049
:1010100000200040006000401448808D20F40070E3
:10102000124988851248806840F400201049886081
:101030000F488830006840F40020C1F88800012083
:101040000C4981F88000084690F86C0020F00100FF
:1010500008496C3108700920064981F820000846CB
:10106000007B20F00900087370470000002000405A
:1010700000000340006000401348008E40F42A4006
:101080001149088601201049803108700E4890F8F7
:101090006C0020F001000C4981F86C000B4880883E
:1010A00020F00700801C094988800846808D20F0C8
:1010B000010088854FF04020008A40F001004FF089
:1010C000402108827047000000600040002000407E
:1010D0000B48008840F03C00094908800948808896
:1010E00020F4606040F40070064988800846808DD6
:1010F00020F0080088850020034908707047000030
:1011000000600040002000403050004070B50546AF
:10111000344801682846FFF797F804460CB90020C8
:1011200070BDAC4201D00020FAE73B212846FFF712
:101130009DF80446601B042801D00020F0E72A48EF
:1011400001682046FFF780F808B10220E8E7274849
:1011500001682046FFF778F808B10320E0E724484B
:1011600001682046FFF770F808B10420D8E721484D
:1011700001682046FFF768F808B10520D0E71E484F
:1011800001682046FFF760F808B10620C8E71B4851
:1011900001682046FFF758F808B10720C0E7184853
:1011A00001682046FFF750F808B10820B8E7154855
:1011B00001682046FFF748F808B10920B0E7124857
:1011C00001682046FFF740F808B10A20A8E70F4859
:1011D00001682046FFF738F808B10B20A0E701208E
:1011E0009EE70000080000200C00002010000020F6
:1011F00014000020180000201C0000202400002003
:1012000020000020280000202C00002030000020BA
:1012100000B500BF052000F03FFB00F001000028F2
:10122000F8D1042000F03CFF00BD00B500BF052050
:1012300000F032FB00F001000028F8D1062000F099
:101240002FFF00BF052000F027FB00F0020002285E
:10125000F8D100BD2DE9F84F814630488068840AF6
:10126000A402CDF80090DDF80090B9F1000F06D08F
:10127000B9F1010F09D0B9F1020F13D10BE044F01D
:1012800001040820264908770CE044F043040120BB
:101290002349087706E040F2091004430920204959
:1012A000087700BF00BF4FF4FA4A01E0AAF1010A33
:1012B000BAF1000FFAD1194884601A48008820F466
:1012C0008070184908801548808C20F0070B4BF07F
:1012D00002001249888400BF12480088C0F3002031
:1012E0000028F9D010480068C61705460F494FF08E
:1012F000000C2A46A2FB017E06FB01E105FB0C1156
:101300004FF0805263463846FEF706FF0546092037
:1013100003492031087028B2BDE8F88F000003406F
:1013200000600040340000205800002080969800A3
:1013300030B591B004460F480068109010A8FEF731
:10134000F3FF05462C22294605A8FEF76BFF05A8EA
:101350000BC8089ACDE90023CDE902100998431C77
:101360000A9800F26C7204A12046FFF7FDFA11B052
:1013700030BD0000600000202534642F252E32642B
:101380002F252E32643B252E32643A252E32643AC4
:10139000252E32640000000010B5002006490860C8
:1013A000FFF7ECFC0549098860F3CB210348018075
:1013B00000F03AFE002010BD700000203400002034
:1013C00008B50848B0F9040000900648B0F90230AA
:1013D000B0F9002004A10748FFF7C6FA00F024FE88
:1013E000002008BD5000002025643B25643B256497
:1013F0000D0A00008400002010B506480388064846
:10140000028806A10748FFF7AFFA00F00DFE0020A2
:1014100010BD00007A0000207800002025643B25E4
:10142000640D0A008400002010B50D480D490860C5
:1014300008460068FFF77CFF0A4909680844094923
:1014400008600D200968087006480068401C0549BE
:1014500008600A200968087000F0E6FD002010BD51
:1014600084000020380000202DE9F0471A48008849
:1014700020F4007018490880184800884FF6F87169
:1014800000EA010848F002001449A439A1F8A400B8
:1014900000BF11480088C0F340200028F9D0104850
:1014A0000068C51704460F4B4FF0000C2046A0FB08
:1014B000036905FB039204FB0C216FF07042634645
:1014C0003046FEF729FE04460748211A46F2A810C6
:1014D0000C1820B2BDE8F08734000020A4000340BF
:1014E0005C000020804F1200B440010010B5FFF7EF
:1014F0005DFDFFF775FDFFF72BFD03200F49088009
:1015000004200F49086044F659000E4908804FF244
:101510007B2008800420091F0870002400BF00E021
:10152000641C022CFCD330BF002400E0641C022C9D
:10153000FCD302200149088010BD000000200040BB
:1015400010ED00E00424004010B51448808C40F0F9
:101550006300124988840846007940F00100087150
:101560000E48A430008840F01300A1F8A4000B48F6
:10157000883000680A4908430849C1F888000846CD
:1015800090F8840040F0010081F884000D20FFF7FE
:10159000FFF90E20FFF7FCF910BD0000000003402A
:1015A00011C20300FF2010490877DF20087308717B
:1015B00000200872FF200C494C3108700A4908735A
:1015C00081F834000020084938310870FF200649AE
:1015D0007C31087004496C3108700349643108702B
:1015E0000020091D087070470060004070B5054676
:1015F0002C880E48007840F001000C49087040F239
:1016000003300A49F831088009490C80200C091D73
:101610000880081D008840F00800091D088000208F
:10162000FFF7B6F901200349086070BD102400409F
:10163000202500401CA1044210B500204FF040219D
:1016400088810846008A40F6420108434FF0402155
:1016500008821220FFF79CF910BD000003484FF0EC
:10166000E02148618861042008617047FF69180023
:1016700010B51348007B40F01E001149087308465E
:10168000007C40F0080008740120088548F6AE0090
:1016900088840520087111200321002804DB4A07F3
:1016A000130E084A135406E04A07140E064A00F0C7
:1016B0000F031B1FD45400BF1120FFF769F910BDA1
:1016C0000050004000E400E018ED00E00EB5FFF728
:1016D00069FFFFF7A1FCFFF737FFFFF739FCFFF7C2
:1016E000F7FCFFF7C5FFFFF7C7FCFFF7A5FFFFF704
:1016F0005DFCFFF7B3FF00205B4908805B49086091
:1017000047F6FF705A49088048808880012002907F
:1017100002A8FFF76BFF002000900346012211464C
:10172000019040F2E37000F005FB52490860084662
:1017300000685149086095E050480088C0F3800077
:1017400030B94E480088C0F3C01008B9FFF7CEFE8C
:101750004A480088C0F34000B0B148480088C0F350
:10176000802088B94548008820F00200434908805D
:1017700000F054FB08B100F027FC40480088C0F39B
:10178000800008B9FFF7B2FE3C480088C0F3003083
:1017900050B33A48008820F48050384908803548D2
:1017A0000068401C3349086034480088C0F380203A
:1017B00040B100F033FB10B100202B49088000F04D
:1017C000ABF811E02B4800682B490968401A05283E
:1017D0000AD92A48008820F00200801C2749088086
:1017E000244800682449086024480088C0F3001099
:1017F000C0B12248008820F0100020490880084627
:101800000088C0F3C02050B1FFF7B8FA1B4909881F
:1018100060F3CB211948018000F006FC02E0184873
:101820001849086015480088C0F3C000D0B11348BB
:101830000088C0F34010A8B91048008820F00800C4
:101840000E4908801048FFF761FC104951F820004C
:101850000F49086008460068804718B10D480068C5
:1018600000F04AF868E70000680000206C000020E3
:1018700050000020600000206400002034000020A0
:101880008400002038000020C4000020CC2000008C
:101890007C0000200400002018B504460120034607
:1018A000002221460090084800F060FA00BF074877
:1018B0000088C0F3C0100028F9D10348044908602B
:1018C00008460068007818BDE401002034000020BC
:1018D0004000002010B50648008820F480600449CC
:1018E00008800448006800F007F8002010BD0000E0
:1018F000340000200000002010B50446224603A159
:101900000448FFF731F800F08FFB10BD25730D0A76
:10191000000000008400002010B590B0294909683B
:1019200001EB4102284901EB8200FEF7FDFC044671
:101930002C22214605A8FEF775FC05A80BC8089ABD
:10194000CDE90023CDE902100998431C0A9800F262
:101950006C721EA12548FFF707F82448143024496B
:1019600008601848006800EB4001174800EB810050
:10197000B0F90A001349096801EB4102124901EB71
:101980008201B1F90810CDE900100E48006800EBA3
:1019900040010D4800EB8100B0F9063009480068AD
:1019A00000EB4001084800EB8100B0F9042011A1D0
:1019B0000F480068FEF7D8FF00F036FB002010B09B
:1019C00010BD000074000020E80000202534642FC2
:1019D000252E32642F252E32643B252E32643A2583
:1019E0002E32643A252E32643B0000008400002031
:1019F0003800002025693B25693B25693B25690D99
:101A00000A00000010B53B212748FEF72FFC2749AC
:101A100008600846006808B9012010BD3B21234832
:101A20000068401CFEF722FC204908600846006858
:101A300008B90120F1E71D480068401CFEF720FCB2
:101A400000B21B4908803B2118480068401CFEF783
:101A50000DFC164908600846006808B90120DCE75B
:101A600012480068401CFEF70BFC00B21049488089
:101A70003B210E480068401CFEF7F8FB0B4908604C
:101A80000846006808B90120C7E708480068401CFC
:101A9000FEF7F6FB00B20649888006480068FFF7AB
:101AA0002BFF0020B9E70000C40000203C0000200C
:101AB000500000200000002070B53B212248FEF7B6
:101AC000D5FB224908600846006808B9012070BDAE
:101AD0003B211E480068401CFEF7C8FB1B490860FC
:101AE0000846006808B90120F1E718480068401C62
:101AF000FEF7C6FB84B2022C01DA0120E7E73B21A6
:101B000012480068401CFEF7B1FB10490860084607
:101B1000006808B90120DAE70C480068401CFEF7AD
:101B2000AFFB85B2012D01DA0120D0E7A54201DB30
:101B30000120CCE706480480064805800648006876
:101B4000FFF7DAFE0020C2E7C40000203C000020BE
:101B5000780000207A000020000000202DE9FC47DA
:101B60003B216248FEF782FB614908600846006835
:101B700010B90120BDE8FC873B215D480068401C8E
:101B8000FEF774FB5A4908600846006808B901204E
:101B9000F0E757480068401CFEF772FB84B240F241
:101BA0006C70844203DB40F63900844201DD012081
:101BB000E0E72F214E480068FEF758FB4C490860CB
:101BC0000846006808B90120D4E749480068401C6D
:101BD000FEF756FB85B2012D01DB0C2D01DD012046
:101BE000C8E72F2142480068401CFEF73FFB4049F0
:101BF00008600846006808B90120BBE73C48006857
:101C0000401CFEF73DFB86B2012E01DB1F2E01DDDD
:101C10000120AFE73B2136480068FEF727FB344937
:101C200008600846006808B90120A3E7304800684A
:101C3000401CFEF725FB87B2172F01DD012099E735
:101C40003A212B480068FEF711FB29490860084635
:101C5000006808B901208DE725480068401CFEF7A0
:101C60000FFB1FFA80F8B8F13B0F01DD012081E77F
:101C70003A211F480068FEF7F9FA1D490860084636
:101C8000006808B9012075E7194800681930FEF7A7
:101C9000F7FA1FFA80F9B9F13B0F01DD012069E77E
:101CA0000020144908601448008820F002001249FE
:101CB00008803B46324629462046CDE9008900F09F
:101CC00039F80E49086008200D49088001200D49A7
:101CD000C1F81C010848008820F48050064908809B
:101CE00009480068FFF708FE002043E7C400002011
:101CF0003C0000201CA104423400002060000020B1
:101D00003025004000A004420000002010B5074824
:101D1000008820F4806000F5806004490880044851
:101D20000068FFF7E9FD002010BD0000340000202E
:101D3000000000202DE9F0478CB004460D46164601
:101D40001F46DDE91489A4F26C700690681E0590A8
:101D500004960397CDF80880CDF8049001A8FEF70B
:101D60000DFA824650460CB0BDE8F08770B5049C71
:101D700000BF254D2D88C5F3C015002DF9D100BF3A
:101D80004FF040252D8805F00E05002DF8D11F4D90
:101D900028602D6829701D4D2D686D1C1B4E356007
:101DA000150C36683570194D2D686D1C174E356051
:101DB000150A36683570154D2D686D1C134E35604B
:101DC00036683270114D2860114D2B80114D2C80DA
:101DD0000D4D2D8825F0800580350B4E3580012571
:101DE0000D4E35704FF040252D8A45F480554FF04B
:101DF00040263582054D2D682D783572034D2D68AE
:101E00006D1C024E356070BD340000204000002083
:101E100044000020460000204800002010B564481F
:101E20000088644908606248008815287CDAFFF75A
:101E3000F3F8614801685E48008800EB40025F48A3
:101E400040F82210FFF710FB5949098801EB4102C5
:101E50005A4901EB820148810020FFF7FBF9544900
:101E6000098801EB4102554901EB8201888001207C
:101E7000FFF7F0F94E49098801EB41024F4901EBA8
:101E80008201C8800220FFF7E5F94949098801EB82
:101E900041024A4901EB82010881FFF759F84448A1
:101EA000008800EB4001454800EB8100B0F90400D8
:101EB0004349B1F9001088420EDC3D48008800EB30
:101EC00040013E4800EB8100B0F904003C49B1F903
:101ED00000104942884201DA012000E0002039491F
:101EE000098860F38611374801803148008800EB8B
:101EF0004001324800EB8100B0F906003049B1F9E9
:101F0000021088420EDC2A48008800EB40012B4872
:101F100000EB8100B0F904002949B1F902104942EF
:101F2000884202DA012001E039E0002025490988D1
:101F300040EA91102349098860F386112148018005
:101F40001B48008800EB40011C4800EB8100B0F901
:101F500008001B49B1F9041088420EDC14480088BF
:101F600000EB4001154800EB8100B0F90400144972
:101F7000B1F904104942884201DA012000E0002052
:101F80001049098840EA91100E49098860F38611CA
:101F90000C48018006480088401C05490880044818
:101FA0000088152801D1012010BD0020FCE70000A9
:101FB000680000207400002060000020E80000207D
:101FC000500000203400002008B5FFF755F81248F3
:101FD0000068FF281DD8FFF728F9002000900E4860
:101FE000006802024FF4807302210C48FFF7BEFE26
:101FF00000BF0B480088C0F3C0100028F9D1FFF7DC
:1020000007F905480068401C03490860002005499D
:102010000880FEF7CBFF08BD6C000020E400002024
:1020200034000020680000200848008820F02000CC
:1020300020300649088006480649086006480079AD
:1020400040F002000449087170470000340000208D
:102050008400002038000020005000400E48007D21
:1020600000F0200060B1C0200C4908800A480079C7
:1020700040F01000084908711020087701207047CF
:10208000B020064908800448007920F01000024979
:1020900008710020F3E700000060004020240040A9
:1020A00018B5044600200123024621460090054849
:1020B000FFF75CFE00BF04480088C0F3C010002892
:1020C000F9D118BDE401002034000020290D0000E2
:1020D000790D00005D1B0000291400009913000019
:1020E000450D0000051A0000B91A0000C1130000D8
:1020F000F91300000D1D0000D51800001F1C1F1E45
:102100001F1E1F1F1E1F1E1F1F1D1F1E1F1E1F1FE6
:102110001E1F1E1F00404040404040404040414183
:1021200041414140404040404040404040404040AC
:102130004040404040050202020202020202020246
:102140000202020202202020202020202020200243
:1021500002020202020290909090909010101010D3
:10216000101010101010101010101010101010106F
:102170000202020202028888888888880808080803
:1021800008080808080808080808080808080808CF
:1021900002020202400000001521000031323334F7
:1021A000000000003B47443B000000003B43463B2F
:1021B000000000003B474C3B000000003B534C3B01
:1021C000000000003B47503B000000003B53503BE9
:1021D000000000003B54523B000000003B54533BC6
:1021E000000000003B47543B000000003B53543BC1
:1021F000000000004F4B00004552524F52000000BB
:10220000102200000000002084000000BC09000033
:10221000F4210000F82100009C210000EC210000C6
:10222000E4210000A4210000AC210000BC2100003A
:10223000B4210000CC210000C4210000DC210000FA
:10224000D42100000000000084000020C400002011
:10225000000000000000000000000000000000007E
:10226000000000000000000000000000000000006E
:10227000000000000000000000000000000000005E
:10228000000000000000000000000000000000004E
:04229000000000004A
:04000005000000E116
:00000001FF
